:020000040800F2
:1000000000020010755B00086D8C0008B5890008BF
:10001000F18900082D8A0008698A000800000000A4
:10002000000000000000000000000000D9A100084E
:100030008D8B000800000000FD8B00089DA10008CA
:10004000155B0008155B0008155B0008155B0008D0
:10005000155B0008155B000881590008155B000856
:10006000155B0008155B0008155B0008155B0008B0
:10007000F1980008155B0008B5980008155B0008AA
:10008000155B0008155B0008155B0008155B000890
:10009000155B0008155B0008155B0008155B000880
:1000A000155B0008155B0008155B0008155B000870
:1000B000155B0008155B0008155B0008155B000860
:1000C000155B0008155B0008155B0008155B000850
:1000D000155B0008019800083D9800087998000811
:1000E000155B0008155B0008155B0008155B000830
:1000F000155B0008155B0008155B0008155B000820
:10010000155B000855A50008155B0008155B000885
:10011000155B0008155B0008155B0008155B0008FF
:10012000155B0008155B0008155B000819A50008A1
:10013000155B0008155B0008155B0008155B0008DF
:10014000155B0008155B0008155B0008155B0008CF
:10015000155B0008155B0008155B0008155B0008BF
:10016000155B0008155B0008155B0008155B0008AF
:10017000155B0008155B0008155B0008155B00089F
:10018000155B0008155B000808B5062000F090FE1E
:10019000012007F0D3FF00BF80B514460A4A156856
:1001A000064684B00F46E86854B1084D1A4608491F
:1001B000009733460195029400F05CF9FFF7E4FFE5
:1001C000044D2C46F2E700BF205B0108806901085E
:1001D00090690108745E010808B513460022FFF714
:1001E000DBFF00BF30B405460C461346022029460B
:1001F000224630BC07F0A0BF42F6E101C0F6000184
:1002000000F04CB908B5838903F400731BB213B92D
:10021000603006F023FA002008BD00BF08B58389CE
:1002200003F400731BB213B9603006F0DDF900204F
:1002300008BD00BF002310B504468181C281036060
:10024000436083608367036143618361194600F102
:100250007000082200F0D6FD40F69D73C0F6000342
:10026000636240F6CD73C0F60003A36241F215034A
:10027000C0F60003E36241F24D03C0F600032462BE
:10028000236310BD70B5CD010E4605F10C0100F0E1
:10029000A7F9044640B100F10C00002184E84200B7
:1002A000A0602A4600F0AEFD204670BD45F6203322
:1002B000C0F601031868FFF79FBF00BF40F6240097
:1002C000C1F2000006F090B940F62400C1F200002F
:1002D00006F0C4B9014806F087B900BF3408001021
:1002E000014806F0BBB900BF3408001070B50446E1
:1002F000FFF7F0FFA569002D2CD1184B1B689C421D
:1003000005D00123A361BDE87040FFF7E9BF144B9E
:10031000E5630126236225646564A661204600F03A
:1003200021F86060204600F01DF8A060204600F033
:1003300019F80421E0602A466068FFF77BFFA06897
:1003400008213246FFF776FFE06812210222FFF70C
:1003500071FFA661BDE87040FFF7C2BF205B0108D6
:10036000F901000870B582B001A90646012006F027
:1003700097F9FFF7A3FF284B1D68AB69002B35D019
:100380003C356B68AC68013B04D52BE0013B803405
:100390005A1C27D0B4F90C20002AF7D14FF6FF736E
:1003A0000025E3810123A381A56725666566A5660F
:1003B000E566FFF789FF01A9019806F071F925604C
:1003C000A560656025616561A56104F1700029463D
:1003D000082200F017FD6563A563A564E564204667
:1003E00002B070BD2C682CB12546CAE72846FFF73D
:1003F0007DFFC5E730460421FFF744FF044628602F
:100400000028F1D1FFF760FF019801A906F048F933
:100410000C233360E3E700BF205B010808B5FFF75A
:100420004DFF07F0ADFE40F21D21C0F60001BDE812
:10043000084000F033B800BF08B507F0A1FE40F255
:100440000521C0F6000100F029F8BDE80840FFF7DB
:100450003BBF00BF0CB410B582B004AC54F8042B01
:100460002346019401F066FA02B0BDE8104002B0E4
:10047000704700BF0EB430B582B005AB054653F8E7
:10048000044B019307F07CFE29462246019B01F0B4
:1004900051FA02B0BDE8304003B070472DE9F04199
:1004A00010F13C06884619D000277568B468013DF4
:1004B0000ED4A389013D43B1012B06D9B4F90E3006
:1004C0000133204601D0C047074380346B1CF0D174
:1004D0003668002EE9D13846BDE8F0813746384607
:1004E000BDE8F0812DE9F84310F13C0680468946CD
:1004F0001AD000277568B468013D0FD4A389013D67
:100500004BB1012B07D9B4F90E30013321464046D7
:1005100001D0C847074380346A1CEFD13668002EEB
:10052000E8D13846BDE8F88337463846BDE8F88359
:10053000F0B4124EB3685F6827F003070F2FD4BFE3
:10054000002101213A46022506EB8504E3689C421E
:1005500007D05868DB6820F0030001319C42024458
:10056000F7D10235B5F5807FEED1054B186859609B
:10057000801AD8611A625F62F0BC70477402001082
:1005800048080010F8B540F648040646C1F20004D9
:1005900008460F4607F0F0FDFFF7CAFF0FCC3546BF
:1005A0000FC50FCC0FC594E8030085E8030038465B
:1005B00007F0E4FD3046F8BD10B5044607F0E0FD55
:1005C0002146BDE8104000F00BB800BF10B504464E
:1005D00007F0D6FD2146BDE8104002F0AFBB00BFDA
:1005E0002DE9F04F01F10B05162D83B006462CD9ED
:1005F00025F00705EB0F8D422CBF194643F0010192
:1006000000292BD1304607F0B7FDB5F5FC7F29D284
:10061000B94F4FEAD50C07EBCC03DC689C4200F0E5
:10062000EE816368E268A16823F00303E318CA60FF
:100630005868916040F001005860304607F09EFD18
:100640000834204603B0BDE8F08F002310258D420A
:100650002CBF194643F001010029D3D00C2333608D
:100660000024EEE75FEA552C04BF4FEAD50C4FEAB1
:100670004C0140F08480A04F07EB8101CC68A1427F
:1006800006D10DE0002B80F23B81E468A14207D047
:10069000626822F00302531B0F2BF3DD0CF1FF3CC9
:1006A0000CF1010C944B3C6903F1080E744508BF32
:1006B000D3F8049022D0616821F003014A1B0F2A6D
:1006C00000F36A81002AC3F814E0C3F810E061DA8D
:1006D000B1F5007F80F03681CA0803EBC2014FF00C
:1006E0000109921009FA02F95A688868E16049EA3A
:1006F0000209A060C3F804908C60C46001204FEA36
:10070000AC0300FA03F048454ED819EA000F07D1B0
:100710002CF0030C400019EA000F0CF1040CF9D086
:1007200007EBCC094C46E046E3689C4207D146E122
:10073000002A80F26E81DB689C4200F0408159689B
:1007400021F003014A1B0F2AF2DD1C465919D86813
:1007500054F808CF8A5045F0010542F00102CCF868
:100760000C00C0F808C05D6079613961C1F80CE027
:10077000C1F808E04A60304607F000FD61E7BCF1CF
:10078000040F00F2CB804FEA951C0CF1380C4FEAB5
:100790004C0170E7611830464B6843F001034B6031
:1007A00007F0ECFC08344CE7BC68636823F00309ED
:1007B0004D4504D8C5EB09030F2B00F38F80DFF8FC
:1007C0003CA1D7F80834DAF80010013329441BBFE4
:1007D00001F20F4121F47F7B01F1100B2BF0030B91
:1007E00004EB090230465946019207F0ABFCB0F128
:1007F000FF3F8046019A00F05381824200F21F8140
:10080000DAF8043042455B44CAF8043000F0518104
:10081000D7F8081401310DBF374BC2EB08029B1803
:10082000C3F8088418BFCAF8043018F007021CBFC8
:10083000C2F10803984408EB0B0314BFC2F58162B0
:100840004FF480629B059B0DC3EB020B304659466B
:1008500007F078FC431C00F03881C8EB00025A44D2
:1008600042F00102DAF80430C7F808805B44BC4269
:10087000CAF80430C8F8042015D0B9F10F0F40F2BF
:10088000FE806268A9F10C0121F00701601802F0F6
:10089000010E41EA0E0E05220F29C4F804E0426061
:1008A000826000F21681DAF82C20BC68934284BF83
:1008B000124AD362DAF83020934284BF0F4A13639E
:1008C000626822F003029542C5EB020301D80F2BA8
:1008D00004DC304607F052FC0024B2E6621943F013
:1008E000010345F00105656030465360BA6007F0CA
:1008F00045FC0834A5E600BF74020010440800104F
:10090000A218E3685068A16840F001005060CB6015
:100910009960304607F032FC083492E6BCF1140FBF
:100920009CBF0CF15B0C4FEA4C017FF6A4AEBCF10E
:10093000540F00F28D804FEA153C0CF16E0C4FEA1B
:100940004C0198E64B0A042B72D9142B9CBF03F17F
:100950005B094FEA490008D9542B00F2C2804FEAE4
:10096000113909F16E094FEA490007EB8000DFF801
:10097000B4818368834275D05A6822F003029142A1
:1009800002D29B689842F7D1D968D7F80490E16009
:10099000A360DC608C60B1E6611942F0010045F0B3
:1009A00001056560596119614860C1F80CE0C1F842
:1009B00008E08A50304607F0E1FB083441E608F1D0
:1009C0000108083418F0030F7FF4AEAE4B461CF05C
:1009D000030FA3F108020CF1FF3C00F09A801B68A2
:1009E0009342F4D07B68400098423FF6DDAE002889
:1009F0003FF4DAAE034200F09180C44690E604F181
:100A000008036469A34208BF0CF1020C3FF44AAE2C
:100A100007E659181C464868DB6854F8082F40F070
:100A200001004860D3609A60304607F0A7FB08E6F3
:100A30004FEA911909F138094FEA490095E7BC429C
:100A40003FF4DEAE374B9C68626822F003023AE75F
:100A5000BCF5AA7F19D84FEAD53C0CF1770C4FEAC8
:100A60004C0108E6D8F804204FEAA909012101FA4F
:100A700009F141EA0209C8F80490194687E7012301
:100A8000C8F80430444600221DE740F254539C4508
:100A90000BD84FEA954C0CF17C0C4FEA4C01EAE57F
:100AA000BC68626822F003020DE7FC214FF07E0C67
:100AB000E1E59105890D00297FF4AAAEBA680BEB38
:100AC000090141F001015160EDE601224FF0000BF8
:100AD000C8E6304604F1080102F030F9124B5B68B9
:100AE000E1E6B3F5AA7F06D84FEAD13909F17709D3
:100AF0004FEA490039E740F25452FC2093424FF04C
:100B00007E099EBF4FEA914909F17C094FEA4900ED
:100B10002BE77B6823EA00037B6064E7400008F171
:100B2000040867E77402001044080010830770B4DB
:100B3000C9B240D0541E002A3FD003788B4221D046
:100B4000431C04E004B30278013C8A421AD013F03B
:100B5000030F184603F10103F4D1032C16D8651EC8
:100B600094B103788B420DD0421C002302E004783C
:100B70008C4207D09D42104603F1010302F10102AD
:100B8000F5D1002070BC70472046FBE741EA012602
:100B900046EA06460246043013687340A3F1013565
:100BA00025EA030313F0803F03D1043C032CF1D862
:100BB000D5E71046D3E71446CFE71046E2E700BF7B
:100BC000032A70B422D941EA00039B0713D00578A9
:100BD0000C78013A0023A54206D01BE010F8015F13
:100BE00011F8014FA54215D1934203F10103F5D14C
:100BF000002070BC70470D6806680C46034604313F
:100C00000430AE4208D1043A032AF4D8002ADED1D7
:100C10001046EEE7281BECE721461846002AD6D1FD
:100C2000F6E700BF0F2AF0B43FD941EA00039B0763
:100C30003DD10C460346154626681E6066685E6018
:100C4000A6689E60E668103DDE60103410330F2DFC
:100C5000F2D8A2F1100525F00F0502F00F041035AF
:100C6000032C00EB0503294423D9043C4FEA940CE0
:100C700001EB8C070C4604371D4654F8046BBC424C
:100C800045F8046BF9D10CF10104A40002F0030251
:100C900009191B193AB101399A1811F8014F03F8D3
:100CA000014B9342F9D1F0BC70470346F2E703468B
:100CB000F1E72246EEE700BF8842F0B411D98C1864
:100CC000A0420ED28518531E4AB121462A4611F879
:100CD000014D013BB3F1FF3F02F8014DF7D1F0BCEC
:100CE00070470F2A3FD941EA00039B073DD10C46CC
:100CF0000346154626681E6066685E60A6689E60AC
:100D0000E668103DDE60103410330F2DF2D8A2F1EA
:100D1000100525F00F0502F00F041035032C00EB31
:100D20000503294423D9043C4FEA940C01EB8C07BA
:100D30000C4604371D4654F8046BBC4245F8046B5E
:100D4000F9D10CF10104A40002F0030209191B19E6
:100D5000002AC4D001399A1811F8014F03F8014B49
:100D60009342F9D1BBE70346F2E70346F2E7224696
:100D7000EEE700BF531E70B40446C018451C15F0C2
:100D8000030FC9B23BD0FAB1E25C8A421DD00246E1
:100D900005E0E3B112F8014D013B8C4215D001385A
:100DA00012F0030FF5D1032B13D85A1E7BB1037831
:100DB0008B420AD0431E03E00478013A8C4204D0EF
:100DC0001846013B002AF7D1104670BC7047184600
:100DD000FBE741EA012646EA0646C21E1046043AEF
:100DE00004687440A4F1013525EA040414F0803F3E
:100DF00003D1043B032B1046F0D80330D5E713464C
:100E0000D1E700BF70B48407034642D0541E002AC5
:100E10003DD0CEB203E0621E002C38D0144603F859
:100E2000016B9A071D46F6D1032C29D9CAB20F2CA3
:100E300042EA022242EA024284BF2B46264611D9E8
:100E4000103E1A605A609A60DA6010330F2EF7D89D
:100E5000A4F1100323F00F0304F00F041033032C4C
:100E60001D440DD92E462346043B032B46F8042B84
:100E7000FAD8231F23F00303043304F00304ED180E
:100E80002CB1C9B22C1905F8011BA542FBD170BCCD
:100E9000704705461446C7E738B50C46054607F0C7
:100EA000C9F9224601462846BDE8384007F0BAB9DC
:100EB00010B5044607F064F92146BDE81040FFF77D
:100EC000EBBF00BF38B50C460968054609B1FFF70E
:100ED000F9FF28462146BDE8384001F02FBF00BF8A
:100EE0002D4B1B68984270B5054654D0C369EBB1D1
:100EF000DA68B2B100231E4652F8231041B10C68E3
:100F0000284601F01BFF2146002CF8D1EB69DA6876
:100F10000136202E3346EFD12846114601F00EFF50
:100F2000EB69196811B1284601F008FF696911B130
:100F3000284601F003FFE96911B1284601F0FEFEE1
:100F4000296B11B1284601F0F9FE696B11B12846F1
:100F500001F0F4FEA96B11B1284601F0EFFEE96C37
:100F600011B1284601F0EAFEA96C11B1284601F042
:100F7000E5FEE96A11B1284601F0E0FEAB6953B124
:100F80002B6A0BB128469847E96B21B12846BDE88A
:100F90007040FFF797BF70BD2002001010B50C46DF
:100FA000B1F90E1007F0AAFA002807DBD4E91623DE
:100FB000121843EBE073C4E9162310BDA38923F490
:100FC0008053A38110BD00BF00207047F0B50C46D0
:100FD000898901F4807C0FFA8CFC83B007461646A1
:100FE0001D46BCF1000F08D00223B4F90E10009387
:100FF0000022002307F02CFAA18921F48051A1815D
:10100000B4F90E10384632462B4603B0BDE8F04026
:1010100007F0C8BA10B582B00C460093B1F90E10B3
:10102000D31707F015FAA389B1F1FF3F08BFB0F15C
:10103000FF3F04BF23F48053A38104D0C4E9160109
:1010400043F48053A38102B010BD00BFB1F90E106C
:1010500007F09CB8C9B2F0B400294BD082070FD07A
:101060000378002B71D0994242D0431C05E013F85D
:10107000012B002A3BD091423AD09A071846F6D16C
:101080000368A3F1013222EA030241EA012712F0C8
:10109000803F47EA07471CD17B40A3F1013222EA97
:1010A000030313F0803F14D1021D02E014F0803FCF
:1010B0000FD1104652F8043BA3F1013687EA03042E
:1010C00026EA0303A4F1013513F0803F25EA040466
:1010D000ECD00378002B38D0994209D0431C01E0B2
:1010E000914205D0184613F8012B002AF8D110467A
:1010F000F0BC704783070BD00378002BF8D0431C5B
:1011000003E002780133002AF2D099071846F8D19B
:101110000368A3F1013222EA030313F0803F0AD1EE
:10112000021D104652F8041BA1F1013424EA01010A
:1011300011F0803FF5D00378002BD9D0431C18461E
:1011400001330278002AFAD1D2E71846D0E700BF6F
:1011500040EA010C1CF0070F40F02380BDF1100D98
:10116000CDE90245CDE900676FF000064FF00007BA
:10117000F0E80223F1E80245A24282FA46FCA7FA0F
:1011800086FC08BFBCF1000F40F0ED80AB4283FA53
:1011900046FCA7FA86FC08BFBCF1000F40F0DF80D8
:1011A000E6E710F0030C00F0278020F0030050F871
:1011B000042B5FEACC7C00F00B8080F0128011F8E9
:1011C00001CB5FFA92F3B3EB0C0C40F013808BB1C0
:1011D00011F801CB5FFAA2F3B3EB0C0C40F00A80DC
:1011E00043B111F801CB5FFAB2F3B3EB0C0C40F052
:1011F00001800BB960467047BDF1100DCDE9024585
:10120000CDE900676FF000064FF0000711F0030C06
:1012100040F0318010F0040F00F00E8050F8042BE5
:1012200051F8044BA24282FA46FCA7FA86FC08BF9A
:10123000BCF1000F40F0978011F0040F3FF498AF1D
:1012400051F8045BF0E80223AA4282FA46FCA7FAAE
:1012500086FC08BFBCF1000F40F07D80F1E802453C
:10126000A34283FA46FCA7FA86FC08BFBCF1000F34
:1012700040F06D80E6E721F00301BCF1020F00F0C1
:10128000228080F2408051F8045B00BF50F8043B9C
:101290004FEA152583FA46FCA7FA86FCB7EB0C2F1C
:1012A00003EA162208BFAA4240F0558051F8045BB9
:1012B000BCF1000F82EA03034FEA056208BF9342C4
:1012C00040F04180E2E751F8045B00BF50F8043B76
:1012D0004FEA154583FA46FCA7FA86FCB7EB0C4F9C
:1012E00003EA164208BFAA4240F0358051F8045B79
:1012F000BCF1000F82EA03034FEA054208BF9342A4
:1013000040F02180E2E751F8045B00BF50F8043B55
:101310004FEA156583FA46FCA7FA86FCB7EB0C6F1B
:1013200003EA166208BFAA4240F0158051F8045B38
:10133000BCF1000F82EA03034FEA052208BF934283
:1013400040F00180E2E719BA12BA00F00EB819BAFB
:1013500022BA00F00AB811BA2ABA00F006B819BACF
:101360002ABA00F002B811BA22BA9CFA8CF0DDE970
:101370000067DDE902451DF1100D38B1B0FA80F0CB
:10138000C0F1180021FA00F122FA00F20120914286
:1013900098BF8041704700BF80EA0102844612F086
:1013A000030F4FD111F0030F32D14DF8044D11F05E
:1013B000040F51F8043B0BD0A3F101329A4312F011
:1013C000803F04BF4CF8043B51F8043B16D100BFEA
:1013D00051F8044BA3F101329A4312F0803FA4F17B
:1013E00001320BD14CF8043BA24312F0803F04BF02
:1013F00051F8043B4CF8044BEAD023460CF8013B6F
:1014000013F0FF0F4FEA3323F8D15DF8044B704718
:1014100011F0010F06D011F8012B0CF8012B002A56
:1014200008BF704711F0020FBFD031F8022B12F045
:10143000FF0F16BF2CF8022B8CF8002012F47F4F00
:10144000B3D1704711F8012B0CF8012B002AF9D108
:10145000704700BF10B504468E2900F2A381DFE873
:1014600011F09F019D019B01990197019501930145
:1014700091018F018D018B010B010901070105010C
:10148000A10103010101FF00FD00FB00F900F700CD
:10149000F500F300F100EF00ED00EB00E900E700DC
:1014A000E500E300E100DF00DD00DB00A101A101B8
:1014B000A101A101A101A101A101A101D900D700B0
:1014C000A101A101A101A101A101A101A101A1010C
:1014D000A101A101A101A101A101D500A101D30098
:1014E000D100A101A101A101CF00A101A101A10190
:1014F000CD00A101A101CB00A101A101C900A10161
:10150000A101A101A101A101A101A101A101A101CB
:10151000A101C700A101C500C300C100A101A10133
:10152000BF00A101A101A101A101A101A101A1018E
:10153000A101A101BD00BB00B900B700B500A10128
:10154000B300B100AF00AD00AB00A900A700A5003B
:10155000A300A1009F009D009B00A101A101A1018A
:1015600099009700A101A101A101A101A10195008C
:10157000A101A101A101A101A101930091008F008E
:101580003E4810BD3E4810BD3E4810BD3E4810BD0F
:101590003E4810BD3E4810BD3E4810BD3E4810BDFF
:1015A0003E4810BD3E4810BD3E4810BD3E4810BDEF
:1015B0003E4810BD3E4810BD3E4810BD3E4810BDDF
:1015C0003E4810BD3E4810BD3E4810BD3E4810BDCF
:1015D0003E4810BD3E4810BD3E4810BD3E4810BDBF
:1015E0003E4810BD3E4810BD3E4810BD3E4810BDAF
:1015F0003E4810BD3E4810BD3E4810BD3E4810BD9F
:101600003E4810BD3E4810BD3E4810BD3E4810BD8E
:101610003E4810BD3E4810BD3E4810BD3E4810BD7E
:101620003E4810BD3E4810BD3E4810BD3E4810BD6E
:101630003E4810BD3E4810BD3E4810BD3E4810BD5E
:101640003E4810BD3E4810BD3E4810BD3E4810BD4E
:101650003E4810BD3E4810BD3E4810BD3E4810BD3E
:101660003E4810BD3E4810BD3E4810BD3E4810BD2E
:101670003E4810BD3E4810BD3E4810BD946F010865
:101680007C6F0108686F0108706C0108346F0108F5
:101690004C6F0108A86D0108CC6F0108A06A010811
:1016A000686A0108706B0108446C0108606B0108EE
:1016B000E06F0108B46B0108246D0108106F010888
:1016C000F86E0108E46E0108CC6E0108AC6E0108EA
:1016D0008C6E01085C6E0108406E0108A86F01085D
:1016E000286E01080C6E0108F86D0108DC6D010818
:1016F000D06D0108BC6D0108986D0108806D01086E
:101700006C6D0108546D0108446D01083C6D0108C1
:10171000186D0108046D0108E86C0108D46C01081B
:10172000C46C0108B86C0108A86C0108906C010831
:10173000806C0108586C0108346C0108246C0108A5
:101740000C6C0108F86B0108D86B0108A06B01084C
:10175000906B0108506B0108406B01082C6B01086D
:10176000206B0108086B0108FC6A0108E86A01089F
:10177000D46A0108C06A0108114810BD114810BDA3
:10178000114810BD114810BD114810BD114810BDC1
:10179000114810BD114810BD114810BD114810BDB1
:1017A000114810BD08461146002B14BF1A462246A8
:1017B00000F080F80D4B002808BF184610BD00BF90
:1017C000946A0108846A0108546A0108406A0108A1
:1017D000246A0108186A0108006A0108F069010812
:1017E000D4690108C8690108C0690108745E01086C
:1017F00010B5044606F0C4FC002221461346BDE89D
:101800001040FFF727BE00BF20F0030110F00300D7
:10181000C0F1000051F8043B00F1040C4FEACC0C7D
:101820006FF000021CBF22FA0CF213434FF0010CC0
:101830004CEA0C2C4CEA0C4CA3EB0C0222EA0302FF
:1018400012EACC1204BF51F8043B0430F4D013F078
:10185000FF0F1FBF013013F47F4F013013F47F0FD0
:1018600018BF0130704700BF00B54DF68363C4F266
:101870001B3383FB0023C11744F24022C1EBA34377
:10188000C0F20F0283B002FB13024FF47A7101FB26
:1018900002F2684669460093019206F095FC38B161
:1018A00000F092FF0368042B0CBF00984FF0FF304C
:1018B00003B000BD0020704793682DE9F0479146C2
:1018C00007460E4673B38C6F14F4005F2ED0126877
:1018D00002F1080A5AF8042C5AF8085C5FEA9208E8
:1018E00016D0043D002401E0A0450FD0384655F83D
:1018F000041F324601F018F90134431CF4D10023CF
:10190000C9F80830C9F80430BDE8F087D9F80830C4
:10191000A3EB8803C9F808300AF1080A002BD9D1D3
:101920001846ECE753601846BDE8F08701F0CEFAA0
:10193000E5E700BF2DE9F04FAFB01D4688461446DD
:101940000793049018B18369002B00F07C81A74BAA
:10195000984500F07E81A64B984500F06E85A54B1A
:10196000984502BFA44B1B68D3F80C80012010A936
:1019700004F096FEB8F80C2002F400731BB2002BA2
:1019800000F0258102F400531BB24BB9D8F878302F
:1019900042F4005223F40053A8F80C20C8F8783021
:1019A00002F008031BB2002B00F0ED80D8F81030D5
:1019B000002B00F0E88002F01A030A2B00F0F08000
:1019C00000231EA90DF1770A8C4601910B9311910A
:1019D0001393129300202346CAEB0101CDF808802F
:1019E000CDF800A003900D916446984698F8003019
:1019F000002B18BF252B00F04F8408F1010215467B
:101A000001322B78252B18BF002BF8D1B5EB080637
:101A10000FD0129A1399C4F80080013289196660B8
:101A20000834072A1391129200F3D880039A92196E
:101A300003922B78002B00F06F850023194605F1E7
:101A400001088DF83B304FF0FF3B6B7806910D4657
:101A500008F10108A3F12002582A00F2D081DFE842
:101A600012F0F802CE01CE01C702CE01CE01CE01A6
:101A7000CE01CE01CE01CC02DB02CE011101470224
:101A8000CE016F0274027402740274027402740252
:101A9000740274027402CE01CE01CE01CE01CE01D9
:101AA000CE01CE01CE01CE01CE018502CE01CE0106
:101AB000CE01CE01CE01CE01CE01CE01CE01CE01AE
:101AC0007400CE01CE01CE01CE01CE015900CE016F
:101AD000CE019E02CE01CE01CE01CE01CE01CE01BD
:101AE000CE01CE01CE01CE01B502FF01CE01CE0165
:101AF000CE011E02FF01CE01CE012302CE01300233
:101B00007600DF024202CE01FF02CE015B00CE0171
:101B1000CE01160145F01005AE06DDF81CA000F15F
:101B20008F81E80600F1C782690640F1C482BAF8E5
:101B30000060002756EA07000AF1040A0CBF0022E1
:101B40000122CDF81CA00123BDE045F0100515F0E1
:101B50002003DDF81CA040F0638115F0100140F077
:101B6000B78215F0400300F0B382BAF80060002796
:101B700056EA07000AF1040A0CBF00220122CDF840
:101B80001CA00B469FE00498414600F08FFD002802
:101B900064D1B8F80C2002F01A030A2B7FF410AFBE
:101BA000B8F90E30002BFFF60BAF02F400731BB236
:101BB000002B00F0958410A9109804F071FD049892
:101BC000414622462B4600F0F1FC039037E008F135
:101BD000600004F009FDB8F80C20D3E604980299DF
:101BE00011AAFFF769FE88B91EAC1FE7005B010868
:101BF000E05A0108C05A0108205B010804980299C4
:101C000011AAFFF759FE002800F03C83DDF8088098
:101C1000B8F80C3003F400731BB2002B00F0C08343
:101C2000109810A904F03CFDB8F80C30039803F0AC
:101C300040031BB2002B18BF4FF0FF3003900398F6
:101C40002FB0BDE8F08FFEF751FBB94B98457FF4FC
:101C500082AEB84B1B68D3F8048087E6B8F80C3026
:101C600003F400731BB2002B00F02082109810A91F
:101C700004F016FD4FF0FF300390E0E7069B07925B
:101C80005B42069345F0040598F80030E0E6AA4868
:101C90008DF83B10AA060B90DDF81CA040F188815E
:101CA0000AF1070222F00702D2E9006702F1080AEE
:101CB000CDF81CA0E80700F1A78356EA07000CBF87
:101CC0000022012202234FF000098DF83B90BBF166
:101CD000000FA8BF25F08005BBF1000F18BF42F030
:101CE0000102002A00F0DB82012B00F08183022B2D
:101CF00000F05F830DF17700DC464FF0070AF10832
:101D000006EA0A0241EA477130324FEAD70E0E4620
:101D1000D2B2774603460270013856EA070BECD17F
:101D2000E9070993E34600F191830198C71ACDF8BA
:101D300014B0059EB742A8BF3E46B9F1000F00D0CF
:101D4000013615F0020318BF023615F08409089316
:101D500040F0CA810698C6EB000BBBF1000F40F3C0
:101D6000C381764B1399129A0A93BBF1100F2FDDA2
:101D7000584623460C95CB464FF0100AB946049CB2
:101D8000029D3746064601E0102E1ADD45F6243046
:101D90000132C0F601001031103E83E8010408331F
:101DA000072A13911292EFDD2046294611AAFFF768
:101DB00083FD002840F03E83102E1399129A1EAB2B
:101DC000E4DC1C460C9D33463E464F46D9469B46B6
:101DD0000A9B0132594484E808080834072A139101
:101DE000129240F383810498029911AAFFF764FDCF
:101DF00000287FF40BAF1399129A1EAC76E18DF890
:101E00003B10002B00F088838DF850300023012612
:101E10008DF83B3014AB374609930023059390E7C8
:101E20000AF1070323F00703D3E9006703F108036E
:101E300056EA070007930CBF00220122002342E765
:101E40000AF1070323F00703D3E9006703F108034E
:101E500056EA070007930CBF00220122012332E754
:101E6000AB068DF83B10DDF81CA040F188800AF12C
:101E7000070121F00701D1E9002308310791164637
:101E80001F46002A73F10000C0F20A8356EA0701D8
:101E90000CBF002201229DF83B90012317E745F07B
:101EA000400598F80030D3E598F8003042466C2B96
:101EB00003BF08F1010845F02005537845F01005EF
:101EC000C6E5A8068DF83B1040F1F882DDF81CA0AD
:101ED000039ADAF80030D1170AF1040A1A6059603F
:101EE000CDF81CA082E545F0200598F80030AFE55C
:101EF000404610F8013B2A2B00F04083A3F130024A
:101F0000092A84BF80464FF0000B3FF6A3AD4FF087
:101F1000000B10F8013B0BEB8B0B02EB4B0BA3F10F
:101F20003002092A8046F4D94BEAEB7B92E500BFE8
:101F3000005B0108205B01080C700108245B0108AC
:101F400045F0800598F8003082E540460022A3F174
:101F5000300710F8013BA3F1300602EB8202092E94
:101F600007EB42028046F2D9069273E545F0100570
:101F7000AB068DF83B10DDF81CA03FF578AFEF06FF
:101F800002D46E0600F1C582DAF800301E46F7175B
:101F90000AF1040A32463B46CDF81CA071E7984886
:101FA0008DF83B10AA060B90DDF81CA03FF578AE2B
:101FB000EF0600F136826E0640F13382BAF8006017
:101FC0000AF1040ACDF81CA0002773E6079BDDF890
:101FD0001CB01B68002201260BF1040B8DF8503059
:101FE00014AB8DF83B20CDF81CB03746099314E7AD
:101FF00045F0010598F800302AE5079ADDF81CA0A5
:1020000012680692069800280AF10402FFF636AE1E
:1020100098F8003007921BE598F800302B2117E55F
:10202000079BDDF81CA01A687648302300278DF83E
:102030003C30164678230AF1040AD21B8DF83D3055
:1020400018BF0122CDF81CA045F002050B90022319
:1020500039E698F8003000297FF4FAAC2021F7E443
:10206000079B07981B680026099300F1040A8DF866
:102070003B60002B00F06582BBF1000F0998C0F2B5
:10208000538231465A46FEF751FD002800F0658222
:10209000099B9DF83B90CDF81CA0C71A5F45C4BFB3
:1020A0005F4605963FF745AE059642E608F16000AB
:1020B00004F0D4FADAE5DAF80020002716460AF12F
:1020C000040AD21B18BF0122CDF81CA00123FAE597
:1020D000DAF80020002716460AF1040AD21B18BFBE
:1020E0000122CDF81CA0EEE51399129A9DF83B3021
:1020F00063B10DF13B0301322360012301316360C1
:102100000834072A1391129200F33281089B5BB1C5
:102110000FAB013223600223023163600834072AC7
:102120001391129200F33081B9F1800F00F0C48056
:10213000059BC7EB030ABAF1000F43DDBAF1100F9C
:10214000DFF8C8902ADD534648460595BA46B146A1
:102150004FF0100B049D06461F4601E0102F16DDC0
:1021600001321031103F84E840080834072A1391E7
:102170001292F3DD2846029911AAFFF79DFB002871
:102180007FF444AD102F1399129A1EACE8DC3B4645
:102190003046059D57464E469A4681460132514487
:1021A00084E800060834072A139112920ADD049885
:1021B000029911AAFFF780FB00287FF427AD13993D
:1021C000129A1EAC099B0132C91984E888000834B0
:1021D000072A1391129200F3BC806B0748D506982A
:1021E000851B002D44DD084B129A0A93102D2DDD1E
:1021F0001027DDF81090DDF808A00B460AE000BFBC
:10220000F86F01080C700108245B0108345B0108B9
:10221000102D1ADD45F624300132C0F601001033CE
:10222000103D84E881000834072A13931292EFDDF1
:102230004846514611AAFFF73FFB002840F00381B2
:10224000102D139B129A1EACE4DC194601320A9B36
:1022500012926918072A84E82800139108DD04986F
:10226000029911AAFFF728FB00287FF4CFAC13993D
:102270000398069A9642ACBF8019801803900029F3
:102280007FF4BCAC0023129398F80030002B18BFE9
:10229000252B1EAC7FF4B1AB4546FFF7CABB002B24
:1022A00062D1EA0740F1818030238DF877300DF15B
:1022B00077030D9F09933AE50698C6EB000ABAF139
:1022C000000F7FF735AFBAF1100FDFF8DC922ADD8F
:1022D000534648460895BA46B1464FF0100B049D48
:1022E00006461F4601E0102F16DD01321031103F67
:1022F00084E840080834072A13911292F3DD284637
:10230000029911AAFFF7D8FA00287FF47FAC102FAA
:102310001399129A1EACE8DC3B463046089D57469E
:102320004E469A4681460132514484E800060834FC
:10233000072A139112927FF7FBAE0498029911AA13
:10234000FFF7BAFA00287FF461AC1399129A1EAC19
:10235000EEE60498029911AAFFF7AEFA00287FF47E
:1023600055AC13991EAC38E71EAB17460993DEE453
:102370000498029911AAFFF79FFA00287FF446AC4F
:102380001399129A1EACC1E60498029911AAFFF79C
:1023900093FA00287FF43AAC1399129A1EACC3E664
:1023A00008F1600004F05AF93AE41F461EAB0993A5
:1023B000BDE4DDF82CE0CDF814B00DF177014FF05D
:1023C0000F0A06EA0A027244330943EA07734FEA26
:1023D000171C12781E46674608460A70013956EAED
:1023E000070BECD101990990DDF814B00F1A9EE4A7
:1023F000002F08BF0A2E32D230360DF177038DF848
:1024000077600D9F099392E456EA070164D0302269
:102410008DF83C208DF83D3045F002050122022365
:1024200051E4DAF800200AF1040A16460027CDF834
:102430001CA03FE4A846FFF7EBBB594B1B68D3F841
:102440000880FFF793BAD046FFF7E2BB302A73D07B
:1024500001990990302203F8012C0F1A67E40DF15D
:10246000770A05945446304639460A22002301F083
:102470006FFE30322270304639460A22002301F0C6
:1024800067FE06460F4656EA0700A24604F1FF34EF
:10249000E9D10199CDF824A0059CCAEB010746E4D7
:1024A000764267EB470756EA07024FF02D090CBF4B
:1024B000002201228DF83B90012308E4E90615D59E
:1024C000DDF81CB00398DBF800300BF1040BCDF8FD
:1024D0001CB01860FFF78ABA00220223FFF7F3BB93
:1024E00008F1600004F0BAF8FFF765BBDDF81CA046
:1024F0006A06DAF800304ABFDDF80CB00398A3F89A
:1025000000B00AF1040ACDF81CA058BF1860FFF70C
:102510006DBABAF900603AE5139BDDF8088023BB79
:1025200000231293FFF774BBFFF76EF99DF83B9001
:10253000CDF81CA00746B7E50199099BCF1AFFF714
:10254000F6BB184BCDF81CA0BBF1060F34BF5F469D
:10255000062727EAE77609935FE49DF83B90CDF8DC
:102560001CA05F460590FFF7E4BB0498414611AA02
:10257000FFF7A2F90028D3D0FFF74ABBDDF81CA073
:1025800098F80130DAF800B00AF10402BBF1000F4C
:1025900007928046B8BF4FF0FF3BFFF759BA00BF24
:1025A000205B010820700108345B01082DE9F04729
:1025B0000C46E0B0256AB1F80CA00895896FA56AB1
:1025C000B4F80E901E9100264FF480770A952AF0F9
:1025D000020A20AD6946009504958046ADF80CA02E
:1025E000ADF80E90029705970696189619961A96CA
:1025F0001B96FFF79FF9051E07DB4046694600F072
:1026000029FAB04218BF4FF0FF35BDF80C3003F087
:1026100040031BB21BB1A38943F04003A38118A858
:1026200003F0DCFF284660B0BDE8F08770B50D46CA
:102630001446064605F0A4FD31462A462346BDE869
:102640007040FFF777B900BF70B504460D4605F03E
:1026500097FD18B105F094FD836953B105F090FD25
:10266000064B22461C68A1682B46BDE87040FFF768
:1026700061B905F085FDFDF739FEEFE7205B010844
:1026800070B50E461546044618B183690BB9FDF7BF
:102690002DFE054B20461C68A16832462B46BDE83E
:1026A0007040FFF747B900BF205B010838B5054609
:1026B0000C4605F065FD20B105F062FD8369002B35
:1026C0004ED03D4B9C4252D03C4B9C4268D03C4B40
:1026D0009C4202BF3B4B1B68DC68A38903F00802E5
:1026E00012B219466AB12269DAB113F0010124D19C
:1026F00003F002031BB203B96169A16022B3002099
:1027000038BD03F0100212B2002A4DD001F00401CE
:1027100009B200292FD1226943F00803A381002ABE
:10272000E3D103F42071B1F5007FDED028462146C5
:1027300000F0ACFDA3892269D7E7636900215B4201
:10274000A160A361002ADAD1A38903F0800109B254
:102750000029D4D043F04003A3814FF0FF3038BDAF
:1027600005F00EFDFDF7C2FD134B9C42ACD1154B9D
:102770001B685C68B1E7616B49B104F144029142A6
:1027800003D0284600F0DAFAA3890022626323F01E
:10279000240322691B0400211B0C61602260BBE73B
:1027A000084B1B689C6898E741F0400109232B60A7
:1027B0004FF0FF30A18138BD005B0108E05A0108ED
:1027C000C05A0108205B010808B505F0D9FC08BD16
:1027D000F0B50C4683B00546002976D010B1836968
:1027E000002B60D03A4B9C4262D03A4B9C4268D05E
:1027F000394B9C4202BF394B1B68DC68012001A9A0
:1028000003F04EFFA38903F400731BB204F16007C9
:10281000002B39D02846214600F01CF9236B0646D0
:102820003BB12846216A984736EA200628BF4FF078
:10283000FF36A38903F080031BB2002B3CD1616BF0
:1028400041B104F14403994202D0284600F076FADF
:1028500000236363A16C21B1284600F06FFA0023C6
:10286000A364FDF72BFD0023A381384603F0F6FE99
:10287000384603F0B3FEFDF727FD019801A903F0E8
:102880000FFF304603B0F0BD384603F0ADFEB4F99B
:102890000C60002EBED1384603F0E0FE019801A97D
:1028A00003F0FEFEEDE7FDF721FD094B9C429CD1B4
:1028B0000A4B1B685C68A1E72846216900F03EFAD4
:1028C000BDE7064B1B689C6898E70E46D9E700BF3A
:1028D000005B0108E05A0108C05A0108205B0108AA
:1028E00010B5044605F04CFC2146BDE81040FFF74A
:1028F0006FBF00BF8B8903F0080212B22DE9F041CF
:102900000D468046002A3FD14A6843F40061002A00
:10291000A9815DDDEC6A002C4FD003F480531EB218
:102920000023D8F80070C8F80030002E54D0AA6DEB
:1029300001F0040109B229B169686B6B521A0BB13D
:102940002B6CD21A00234046296AA047421C4ED065
:10295000AB892A6903F4805123F40063AB8109B287
:10296000002385E80C00002950D1696BC8F800707D
:1029700019B305F14403994202D0404600F0DEF954
:1029800000206863BDE8F0810E69B6B19B070C6852
:1029900008BF4B690E6018BF0023A41B8B600AE0C0
:1029A00032462346AF6A296A4046B8470028C0EB42
:1029B0000404064404DD002CF2DC0020BDE8F081B4
:1029C000AB8943F04003AB814FF0FF30BDE8F081AD
:1029D0002A6C002A9EDCF0E7296A32460123404631
:1029E000A047411C024622D0A989EC6AA0E7D8F88A
:1029F00000307BB9AA8929696B6002F480531BB24D
:102A000022F40062AA812960002BAED0C317A8650A
:102A1000EB65AAE71D2B01D0162B15D1AA892B69CE
:102A200022F40062AA8100226A602B609DE7D8F838
:102A30000030002BD8D01D2B18BF162BC0D1C8F8E2
:102A400000703046BDE8F081AB8943F04003AB81B4
:102A5000BDE8F08130B50B6983B00C46054693B1F3
:102A600010B18369002B2AD0204B9C422CD0204BE4
:102A70009C422DD01F4B9C4202BF1F4B1B68DC6841
:102A8000B4F90C301BB90025284603B030BD012035
:102A900001A903F005FEA38903F400731BB203B37D
:102AA00028462146FFF726FFA38903F400731BB2D3
:102AB00005468BB1019801A903F0F2FDE4E7FDF7AB
:102AC00015FC0A4B9C42D2D10B4B1B685C68D7E7C4
:102AD000094B1B689C68D3E704F1600003F0BEFD5E
:102AE000E8E704F1600003F07FFDD9E7005B01082F
:102AF000E05A0108C05A0108205B010810B50446DD
:102B000030B105F03DFB2146BDE81040FFF7A2BF04
:102B1000034B04491868BDE81040FDF7E3BC00BF53
:102B2000205B0108552A00082DE9F043144683B0C4
:102B300007460E46012001A903F0B2FDA38903F464
:102B4000007212B2002A6FD003F4005212B232B9EE
:102B5000A26F43F4005342F40052A381A26700F035
:102B600071FB012857D038466946324604F170039C
:102B700000F07CFEB0F1FF3FE846814626D00028F9
:102B80003AD0002509E0236818F805201A70236858
:102B90000133236001354D452ED2A368013B002B44
:102BA000A360F0DAA269934228DB236818F80520B5
:102BB0001A70236819780A293CD001330020236059
:102BC0000028E7D0A3894FF0FF3605E0A38943F042
:102BD00040039BB2A381064603F400731BB21BB9EA
:102BE00004F1600003F03AFD019801A903F058FDDB
:102BF000304603B0BDE8F083A389EDE718F805106F
:102C00003846224600F0B0FDB0F1FF33584258413B
:102C10000028BFD0D6E7731EFE2BA4D80DF10808FC
:102C2000814608F8086DACE704F1600003F0DCFCB5
:102C3000A38989E73846E4E738B505460C4605F030
:102C40009FFA18B105F09CFA83699BB1114B9C4225
:102C500017D0114B9C4218D0104B9C4202BF104B16
:102C60001B68DC6805F08CFA29462246BDE838402E
:102C7000FFF75ABF05F084FAFDF738FB054B9C427D
:102C8000E7D1074B1B685C68ECE7054B1B689C6849
:102C9000E8E700BF005B0108E05A0108C05A0108DC
:102CA000205B0108F8B5224D0F46044605F064FA92
:102CB000AB685E6826F0030606F2EF33DF1BBF0A3F
:102CC000013FBF02B7F5806F07DB0021204605F00A
:102CD00039FAAB689B19984204D0204605F04EFAA9
:102CE0000020F8BD7942204605F02CFA01300DD0C5
:102CF000104BA9681A68F61B46F00106D71B204640
:102D00004E601F6005F03AFA0120F8BD0021204610
:102D100005F018FAAB68C21A0F2ADEDD0649096809
:102D2000401A044942F0010208605A60D5E700BF2A
:102D300074020010480800107C0600102DE9F041D4
:102D40000D460646002955D005F016FA55F8041C24
:102D5000DFF868C1A5F1080421F00103E218DCF8EE
:102D600008005768904227F0030765D011F0010171
:102D7000576032D00021D0194068C00706D4DB1953
:102D8000906800294AD0D268C260906043F0010286
:102D90006260E350E1B9B3F5007F2DD35A0A042AEB
:102DA00066D89809383041000CEB810C4349DCF8B7
:102DB0000820624567D0516821F003018B4202D29E
:102DC00092689445F7D1D368E360A260D4609C60B8
:102DD0003046BDE8F04105F0D1B955F8085C641BF8
:102DE0000CF10808A06840452B443FD0E568C56059
:102DF000A860C0E7BDE8F081DB080CEBC302DCF89B
:102E000004009168E2609B10012505FA03F3184362
:102E1000A160CCF804009460CC60D9E7284DA842AA
:102E2000B1D143F00102CCF81440CCF81040E0607E
:102E3000A0606260E350CBE7FF18CB0707D455F8DA
:102E4000083CE41AFF18A268E368D3609A601D4B3F
:102E5000CCF808401B6847F001029F426260B7D37C
:102E6000194B30461968FFF71DFFB1E7012182E7D2
:102E700002F15B004100142A96D9542A0CD8180B91
:102E80006E30410090E74B688010012505FA00F094
:102E900003434B60134697E7B2F5AA7F03D8D80BDC
:102EA0007730410080E740F254518A4203D8980CB1
:102EB0007C30410078E7FC217E2075E77402001029
:102EC0007C02001080060010440800102DE9F04F2D
:102ED000936883B0914680460C46002B2CD088899D
:102EE00000F008031BB2002B2AD00B69002B27D05F
:102EF00000F002031BB2D9F80050002B2FD04FF086
:102F0000000A4FF47F4B5746C7F6FF7B5F4534BF3F
:102F10003B465B4652464046002F5AD0216AA66A7D
:102F2000B04700286BDDD9F808301B1A82443F1ADD
:102F3000C9F80830002BE9D1002003B0BDE8F08FBC
:102F400040462146FFF7B2FB002840F04D81A089A2
:102F5000D9F8005000F002031BB2002BCFD110F0C3
:102F6000010B53D15E46002E2ED000F4007212B237
:102F7000D4F808A00146002A00F083805645D446C4
:102F8000C0F0BB8001F49061002940F0C980206846
:102F9000374662465946CDF800C0FDF78DFEDDF894
:102FA00000C0A1682268CAEB01036244A3602260EA
:102FB000D9F80830DB1BBB44F61BC9F80830002BDE
:102FC000BAD0A089002ED0D1D5F800B06E680835EF
:102FD000C9E7D5F800A06F68083597E7594632462B
:102FE000CDF800C0FDF768FE23689B1923604046BA
:102FF0002146FFF72FFDDDF800C000282BD0A38964
:1030000043F04003A3814FF0FF3096E79A469C4679
:103010009B461F46002F2DD0BCF1000F72D02068B8
:103020002269A668D4F814E0BA4534BF53463B463B
:10303000904202D97644B342D0DC734541DBA66AA4
:10304000216ACDF800C040465A467346B047061E76
:10305000DDF800C0D3DDBAEB060A46D0D9F8083057
:103060009B1BB344BF1BC9F80830002B3FF464AF6F
:10307000002FD1D1D5F800B06F684FF0000C0835A3
:10308000C8E720682269904202D86769BE427ED2B2
:10309000564534BF374657463A465946FDF70CFE6B
:1030A000A3682268DB1BD219A3602260002B7FF487
:1030B0007FAF40462146FFF7CDFC00283FF478AFB4
:1030C0009DE71A4659460193CDF800C0FDF7F4FD7F
:1030D000019BA1682268DDF800C01E46C91AD218FB
:1030E000BAEB060AA1602260B8D140462146FFF73C
:1030F000B1FC002883D1D446B0E72068B2463746F9
:10310000B44646E758460A213A46FDF70FFD002827
:1031100065D000F1010ACBEB0A0A4FF0010C7EE703
:103120002169236867695B1A07EB470707EBD777C5
:1031300003F1010E7F10B644774500F480603A46F3
:1031400000B23CBF77463A46002833D0404611468D
:103150000193FDF745FA019B8246002847D01A46A5
:1031600021690193FDF75EFDA289019B22F4906223
:1031700042F08002A2810AEB0300FA1AC4F810A000
:1031800067612060B246A2603746B44601E76FF03F
:1031900000439E4238BF334693FBF7F303FB07F32C
:1031A000216AA76A40465A46B84700287FF727AFEA
:1031B0000746FDE64046019300F0E0F8019B824699
:1031C0000028D8D140462169FFF7B8FDA38923F034
:1031D00080031B040C221B0CC8F8002010E707F129
:1031E000010A4FF0010C1AE74FF0FF30A5E60C235F
:1031F000C8F80030A38903E710B5144622B1104681
:103200000A49FDF7A5FF08B9094810BD204608493D
:10321000FDF79EFF0028F7D020460649FDF798FFEE
:10322000034B00280CBF1846002010BD2C7001086D
:1032300028700108745E010840F28460C1F2000049
:10324000704700BF40F28463C1F20003186A704700
:1032500000487047A80600100020704700487047DB
:10326000C806001038B50C46054604F089FF29460B
:103270002246BDE83840FFF7BFBF00BF08B504F0E5
:103280007FFF014808BD00BFC8060010F0B58B895C
:1032900003F0020212B293B00C460546002A3CD15C
:1032A000B1F90E1000291ADB6A4605F083F80028F0
:1032B00014DB029A0E9B02F47042B2F500514F42A9
:1032C0004F41002BCCBF1E464FF48076B2F5004F25
:1032D0002AD0A38943F40063A3810CE0A38903F0FF
:1032E000800636B243F40063002E0CBF4FF48076A4
:1032F0004026A381002728463146FDF771F9A389AE
:10330000002827D01B4A43F080032A62A381206053
:103310002061666197B913B0F0BD01F147030B60FE
:103320000B6101234B61F6E7E26A13498A42D0D16F
:10333000A289236542F48063A381DCE72846B4F9BF
:103340000E1004F0EFFF0028E5D0A38943F001033D
:10335000A381E0E703F4007212B2002ADBD143F04C
:10336000020304F14702A381012322602261636109
:10337000D1E700BFF9010008151000082DE9F04F52
:103380000C4683B081461746002900F0FF8004F008
:10339000F3FE07F10B0554F8043C162DA4F1080ABE
:1033A00023F0030663D810214FF000080D46BD42FC
:1033B00038BF48F00108B8F1000F40F0ED808E42B0
:1033C0005BDADFF8A0C3DCF808000AEB06029042E3
:1033D00000F0E780D2F804E02EF0010B9344DBF814
:1033E00004B01BF0010F1CBFC64672465ED0DB075F
:1033F00000F1A68054F8083CC3EB0A0BDBF804305C
:1034000023F003039B190193002A5AD082420EEB4A
:10341000030800F01481884553DBD36892685F4647
:103420009A60D360DBF80C3057F8081F321F242A4B
:10343000CB60996000F24181132A98BF3B460BD9BB
:103440002368CBF8083063681B2ACBF80C3000F2F5
:103450003D810BF11003083422681A6062685A60DB
:10346000A2689A60DBF804303C46DA4606E025F0B4
:10347000070529464FEAD57899E7B046C5EB08021B
:103480000F2A49D803F001030AEB080243EA0803B4
:10349000CAF80430536843F001035360484604F00F
:1034A0006DFE2746384603B0BDE8F08F2EF0030EC0
:1034B0000EEB060888459ADBD1689268D1608A6075
:1034C000DCE7019B8B423BDB5F46DBF80C3057F8B7
:1034D000081F321F242ACB60996000F2A180132AB2
:1034E00098BF3B460BD92368CBF8083063681B2A8A
:1034F000CBF80C3000F2F6800BF110030834226890
:10350000DDF804801A6062685A60A2689A60DBF88D
:1035100004303C46DA46B1E70AEB050103F001034B
:1035200088181D4342F00102CAF804504A604368FB
:1035300043F00103436008314846FFF7FFFBADE766
:1035400039464846FDF74CF80746D8B154F8043CD4
:1035500023F00102A0F108015244914200F0A7803B
:10356000321F242A67D8132A9CBF0346224638D824
:10357000116819605168596092689A6048462146FE
:10358000FFF7DCFB484604F0F9FD8BE7114603B07A
:10359000BDE8F04FFDF724B80C23C9F80030002730
:1035A00080E7426822F0030E0EEB060205F11008D8
:1035B0004245B8BF0246FFF61AAF0AEB0503521B9D
:1035C00042F001025A6054F8042CCCF8083002F0A2
:1035D0000102154344F8045C484604F0CFFD274639
:1035E00060E72368036063681B2A43609CBF04F1A3
:1035F000080200F10803BBD9A3688360E368242AAA
:10360000C36003BF23690361626900F1100309BF4E
:10361000426104F1100200F1180304F11802A7E757
:1036200021463846FDF748FB3C46DBF80430DDF820
:103630000480DA4622E72146FDF73EFB9EE705F1CE
:1036400010039845FFF63DAF5F46DBF80C3057F8A6
:10365000081F321F242ACB60996063D8132A98BFB1
:103660003B460AD92368CBF8083063681B2ACBF89D
:103670000C3060D80BF11003083422681A606268BD
:103680005A60A2689A600BEB0503C5EB080242F092
:1036900001025A60DBF80420CCF8083002F0010285
:1036A0001543CBF80450484604F068FDFAE650F89C
:1036B000042C22F00308B044E0E621463846FDF72A
:1036C000FBFA3C46DBF80430DA46D7E6A368CBF8D1
:1036D0001030E368242ACBF814300FD00BF1180314
:1036E0001034B9E6A368CBF81030E368242ACBF88D
:1036F00014300DD00BF11803103400E72369CBF818
:10370000183062690BF12003CBF81C201834A3E6B3
:103710002369CBF8183062690BF12003CBF81C2029
:103720001834ECE638462146CDF800C0FDF7C4FA5F
:10373000DDF800C0A7E7A368CBF81030E368242ABF
:10374000CBF8143003D00BF11803103495E723693C
:10375000CBF8183062690BF12003CBF81C20183429
:103760008BE700BF7402001070B50D461446064684
:1037700010B18369002B57D0324B9C4259D0324B49
:103780009C425AD0314B9C4202BF314B1B68DC68D3
:10379000A389A26903F0080000B2A26000283AD011
:1037A0002269002A37D003F4005109B2EDB2A9B161
:1037B000236861699A1A8A421CDA0132A1680139C8
:1037C000A16003F8015B6169236091421AD0A3896B
:1037D000DB0701D50A2D15D0284670BDA16F43F433
:1037E000005321F40051A3812368A16761699A1AEB
:1037F0008A42E2DB30462146FFF72CF940B92368C4
:103800000122DBE730462146FFF724F90028E3D008
:103810004FF0FF35E0E730462146FEF747FF00282E
:10382000F6D1A3892269BEE7FCF760FD054B9C42F7
:10383000A5D1074B1B685C68AAE7054B1B689C6811
:10384000A6E700BF005B0108E05A0108C05A010862
:10385000205B010838B50C46054604F091FC29466A
:103860002246BDE83840FFF77FBF00BF2DE9F04199
:103870001E4686B00C46054617460F4B91B1D3F84D
:103880000080FFF7D9FC00960346214628463A46B9
:10389000C047431C03D1002333608A232B6006B04A
:1038A000BDE8F0811F68FFF7C7FC0096034603A937
:1038B00028462246B847ECE7000700102DE9F04102
:1038C000164B86B004460E461546C8B11F6804F074
:1038D00057FC8046FFF7B0FC214603460095404662
:1038E0003246B8470446621C03D0204606B0BDE805
:1038F000F08100232B6004F043FC8A230360F4E78B
:103900001E6804F03DFC0746FFF796FC224603467E
:103910000095384603A9B0470446E4E700070010C5
:1039200021B1FF2A04D80A70012070470846704769
:103930008A2303604FF0FF30704700BF2DE9F0414C
:1039400040F20074C1F2000482B01D46064688466B
:1039500017462468FFF770FC009503464146304641
:103960003A46A04702B0BDE8F08100BF81F00041B7
:1039700002E000BF83F0004330B54FEA41044FEA54
:10398000430594EA050F08BF90EA020F1FBF54EAEF
:10399000000C55EA020C7FEA645C7FEA655C00F08B
:1039A000E2804FEA5454D4EB5555B8BF6D420CDD5C
:1039B0002C4480EA020281EA030382EA000083EADF
:1039C000010180EA020281EA0303362D88BF30BD7F
:1039D00011F0004F4FEA01314FF4801C4CEA1131D5
:1039E00002D0404261EB410113F0004F4FEA033334
:1039F0004CEA133302D0524263EB430394EA050FBF
:103A000000F0A780A4F10104D5F1200E0DDB02FA2D
:103A10000EFC22FA05F2801841F1000103FA0EF2C1
:103A2000801843FA05F359410EE0A5F120050EF187
:103A3000200E012A03FA0EFC28BF4CF0020C43FAB8
:103A400005F3C01851EBE37101F0004507D54FF0C5
:103A5000000EDCF1000C7EEB00006EEB0101B1F515
:103A6000801F1BD3B1F5001F0CD349085FEA30005B
:103A70004FEA3C0C04F101044FEA445212F5800F66
:103A800080F09A80BCF1004F08BF5FEA500C50F103
:103A9000000041EB045141EA050130BD5FEA4C0CE6
:103AA000404141EB010111F4801FA4F10104E9D16F
:103AB00091F0000F04BF01460020B1FA81F308BF66
:103AC0002033A3F10B03B3F120020CDA0C3208DD32
:103AD00002F1140CC2F10C0201FA0CF021FA02F10D
:103AE0000CE002F11402D8BFC2F1200C01FA02F17D
:103AF00020FA0CFCDCBF41EA0C019040E41AA2BFA2
:103B000001EB0451294330BD6FEA04041F3C1CDA69
:103B10000C340EDC04F11404C4F1200220FA04F089
:103B200001FA02F340EA030021FA04F345EA030133
:103B300030BDC4F10C04C4F1200220FA02F001FAF5
:103B400004F340EA0300294630BD21FA04F0294677
:103B500030BD94F0000F83F4801306BF81F4801110
:103B60000134013D4EE77FEA645C18BF7FEA655C83
:103B700029D094EA050F08BF90EA020F05D054EA55
:103B8000000C04BF1946104630BD91EA030F1EBF5A
:103B90000021002030BD5FEA545C05D1400049415E
:103BA00028BF41F0004130BD14F580043CBF01F551
:103BB000801130BD01F0004545F0FE4141F4700137
:103BC0004FF0000030BD7FEA645C1ABF1946104612
:103BD0007FEA655C1CBF0B46024650EA013406BF13
:103BE00052EA033591EA030F41F4002130BD00BFD2
:103BF00090F0000F04BF0021704730B54FF480648F
:103C000004F132044FF000054FF0000150E700BF0F
:103C100090F0000F04BF0021704730B54FF480646E
:103C200004F1320410F0004548BF40424FF000015B
:103C30003EE700BF42004FEAE2014FEA31014FEA9E
:103C400002701FBF12F07F4393F07F4F81F06051ED
:103C5000704792F0000F14BF93F07F4F704730B55C
:103C60004FF4607401F0004521F0004120E700BFEF
:103C700050EA010208BF704730B54FF000050AE076
:103C800050EA010208BF704730B511F0004502D577
:103C9000404261EB41014FF4806404F132045FEA79
:103CA000915C3FF4DCAE4FF003025FEADC0C18BF1E
:103CB00003325FEADC0C18BF033202EBDC02C2F114
:103CC000200300FA03FC20FA02F001FA03FE40EAA6
:103CD0000E0021FA02F11444C1E600BF70B54FF0A6
:103CE000FF0C4CF4E06C1CEA11541DBF1CEA135588
:103CF00094EA0C0F95EA0C0F00F0DEF82C4481EAF0
:103D0000030621EA4C5123EA4C5350EA013518BF0F
:103D100052EA033541F4801143F4801338D0A0FBFC
:103D200002CE4FF00005E1FB02E506F00042E0FBA9
:103D300003E54FF00006E1FB03569CF0000F18BFAF
:103D40004EF0010EA4F1FF04B6F5007F64F5407457
:103D500004D25FEA4E0E6D4146EB060642EAC621EA
:103D600041EA55514FEAC52040EA5E504FEACE2E57
:103D7000B4F1FD0C88BFBCF5E06F1ED8BEF1004F5A
:103D800008BF5FEA500E50F1000041EB045170BDD6
:103D900006F0004646EA010140EA020081EA03011A
:103DA000B4EB5C04C2BFD4EB0C0541EA045170BD16
:103DB00041F480114FF0000E013C00F3AB8014F190
:103DC000360FDEBF002001F0004170BDC4F10004D9
:103DD000203C35DA0C341BDC04F11404C4F120055A
:103DE00000FA05F320FA04F001FA05F240EA0200B5
:103DF00001F0004221F0004110EBD37021FA04F6EB
:103E000042EB06015EEA430E08BF20EAD37070BDA4
:103E1000C4F10C04C4F1200500FA04F320FA05F003
:103E200001FA04F240EA020001F0004110EBD37005
:103E300041F100015EEA430E08BF20EAD37070BD75
:103E4000C4F1200500FA05F24EEA020E20FA04F34E
:103E500001FA05F243EA020321FA04F001F00041FD
:103E600021FA04F220EA020000EBD3705EEA430E6E
:103E700008BF20EAD37070BD94F0000F0FD101F09D
:103E80000046400041EB010111F4801F08BF013CD6
:103E9000F7D041EA060195F0000F18BF704703F014
:103EA0000046520043EB030313F4801F08BF013D9B
:103EB000F7D043EA0603704794EA0C0F0CEA135557
:103EC00018BF95EA0C0F0CD050EA410618BF52EA11
:103ED0004306D1D181EA030101F000414FF0000017
:103EE00070BD50EA410606BF1046194652EA430625
:103EF00019D094EA0C0F02D150EA013613D195EA99
:103F00000C0F05D152EA03361CBF104619460AD1E0
:103F100081EA030101F0004141F0FE4141F47001EA
:103F20004FF0000070BD41F0FE4141F4780170BDDA
:103F300070B54FF0FF0C4CF4E06C1CEA11541DBF3F
:103F40001CEA135594EA0C0F95EA0C0F00F0A7F841
:103F5000A4EB050481EA030E52EA03354FEA01316E
:103F600000F088804FEA03334FF0805545EA131381
:103F700043EA12634FEA022245EA111545EA106549
:103F80004FEA00260EF000419D4208BF964244F1E0
:103F9000FD0404F5407402D25B084FEA3202B61AFF
:103FA00065EB03055B084FEA32024FF480104FF4D3
:103FB000002CB6EB020E75EB030E22BFB61A754647
:103FC00040EA0C005B084FEA3202B6EB020E75EBDA
:103FD000030E22BFB61A754640EA5C005B084FEA42
:103FE0003202B6EB020E75EB030E22BFB61A75460F
:103FF00040EA9C005B084FEA3202B6EB020E75EB1A
:10400000030E22BFB61A754640EADC0055EA060EDA
:1040100018D04FEA051545EA16754FEA06164FEA1D
:10402000C30343EA52734FEAC2025FEA1C1CC0D1C9
:1040300011F4801F0BD141EA00014FF000004FF056
:10404000004CB6E711F4801F04BF01430020B4F117
:10405000FD0C88BFBCF5E06F3FF6AFAEB5EB030CCF
:1040600004BFB6EB020C5FEA500C50F1000041EBCC
:10407000045170BD0EF0004E4EEA113114EB5C0499
:10408000C2BFD4EB0C0541EA045170BD41F480116C
:104090004FF0000E013C90E645EA060E8DE60CEA74
:1040A000135594EA0C0F08BF95EA0C0F3FF43BAF91
:1040B00094EA0C0F0AD150EA01347FF434AF95EA48
:1040C0000C0F7FF425AF104619462CE795EA0C0F2C
:1040D00006D152EA03353FF4FDAE1046194622E7F9
:1040E00050EA410618BF52EA43067FF4C5AE50EAD3
:1040F00041047FF40DAF52EA43057FF4EBAE12E7C3
:104100004FEA410212F5001215D211D56FF47873FF
:10411000B3EB625212D94FEAC12343F0004343EAA2
:10412000505311F0004F23FA02F018BF404270477D
:104130004FF00000704750EA013005D111F0004007
:1041400008BF6FF0004070474FF00000704700BF9D
:104150004BB942B9002908BF002802D04FF0FF3107
:10416000084600F0DBBF82B0EC462DE9005000F0BD
:104170001BF8DDF804E002B00CBC7047F8B5164639
:1041800004460D461F4600F0CBFF06FB01F300FB83
:104190000737A6FB0023FB18A21A65EB0303069C56
:1041A000C4E90023F8BD00BFF8B5164604460D4625
:1041B0001F4601F019F900FB07F7A0FB062306FBD9
:1041C0000177FB18A21A65EB0303069CC4E90023E0
:1041D000F8BD00BF03685A004CBF43F0004323F012
:1041E0000043C018704700BF2DE9F04F064683B06A
:1041F000914611B3013901918846002707EB080465
:1042000004EBD474641006EBC40B5846FFF7E2FFCE
:10421000019B651CA342824606EBC50015D0FFF743
:10422000D9FF0138CA4504D9BC420BD004F1FF388C
:10423000E4E7484502D22F46E0E78B46584603B0F4
:10424000BDE8F08F4FF0000BF8E7CA45ECD8F5E772
:10425000012807D0022807D0044B00280CBF1846BD
:10426000002070470248704702487047F148000834
:10427000E9480008E1480008036810B50446D8077B
:1042800006D4990704F1480009D500F0B5FC23686D
:104290005A0709D518070ED5D90613D510BD00F059
:1042A000A3FC23685A07F5D404F1D00000F0ACFC5D
:1042B00023681807F0D404F5D87000F0ADFC23682B
:1042C000D906EBD404F50C70BDE8104000F0E8BC52
:1042D00030B5244B83B004468D1E002B3CD02846BD
:1042E00001A9AFF300800346002B21D02A46019993
:1042F000FFF77AFF0546F0B1FFF76CFF6B68A0642B
:10430000012B11D0281D002B22DBFFF763FF0023B8
:10431000E06423650368002B10DBFFF75BFF0023DD
:104320002061184603B030BD002323610523F8E760
:1043300023610923F5E720610923F2E7C3F3036052
:10434000FFF786FF206100280CBF09230023E8E760
:104350000123E0642365DDE70348044B1B1ADB10EF
:104360000193C3E7000000003C700108747C010861
:10437000036803B11B181846704700BF0920704737
:10438000704700BF2DE9F0470C1D064617460FCCBD
:10439000ADF5916D03AD0FC50FCC0FC50FCC0FC59B
:1043A00094E80F0002ACD6F80C80D6F8189085E897
:1043B0000F0000233046216C23609F4214BF0A2760
:1043C0000927FFF785FF054695B1A36B0094324698
:1043D00063640120CDF8049047F010013346C047D4
:1043E000002831D1284622B00DF5806DBDE8F08758
:1043F000236C21464FF41072736192A8FCF712FCF3
:10440000314692AA336938469847A09B0094824669
:1044100063640120CDF80490394632463346C047E4
:1044200090B9204692A94FF41072FCF7FBFBBAF149
:10443000080F06D13046216CFFF74AFF09270546D1
:10444000C2E7BAF1070F01D00925CBE72846216C56
:10445000FFF796FF03A800F0BBFB00BF70B5044652
:104460000D462046296CFFF733FF064650B92A6CEB
:1044700023696261012021462A4698470828F0D026
:10448000072801D0FBF780FE3046296CFFF778FF44
:10449000281D00F09DFB00BF406C7047CB6BF0B552
:1044A0000B640D1D0F4606460FCDADF5117D01AC19
:1044B0000FC40FCD0FC40FCD0FC495E80F0084E8D3
:1044C0000F004FF0FF33009330461099FFF700FFC5
:1044D00058B9336931466A46984708280446F3D0EC
:1044E0006846FFF7C9FE062C03D009200DF5117DA3
:1044F000F0BD30463946FFF7B1FF00BF30B4DD6B89
:10450000C16082610446194600221D6430BCFFF779
:1045100039BF00BF70B54369C6680B6404460D46D9
:1045200026B10122FFF72EFFFBF72EFE036921467D
:1045300002202A469847072803D0082808D0FBF70E
:1045400023FE3046296CFFF71BFF281D00F040FBBF
:1045500020462946FFF782FFC26810B42AB1CC6B0F
:1045600000220C6410BCFFF70DBF10BCFFF796BF14
:10457000704700BF08B5836801460BB1012098471A
:1045800008BD00BF81B90F2A98BF002B08BF00EB00
:1045900082020CBF0023012301BF18465268009B12
:1045A0001A6018BF0220704704298CBF0220012026
:1045B000704700BF00B585B00A4603AB00210093E9
:1045C0000B46FFF7DFFF039805B000BD79B90F2A4E
:1045D00098BF002B02BF009900EB820209680CBF54
:1045E0000023012306BF18465160022070470429AA
:1045F0008CBF02200120704710B584B004AB0C467C
:1046000043F8042D0021009322460B46FFF7DEFFFE
:1046100004B010BD2DE9F04FCE6C8BB00C4656F8AF
:10462000041B1D46174600F0030807910896E3B9DE
:1046300009028DF82530032307918DF82430236D6E
:10464000B8F1020F08BFA66B13F001031BD00022C4
:104650000192022D40F3B380FFF790FE002800F096
:10466000B58009200BB0BDE8F08F022BE7DC0B0C06
:10467000DAB209048DF82530022307918DF8243031
:1046800006EB8206DBE700F0080004F15802C0B236
:10469000019302920390AA463568002D00F0FB803A
:1046A000BAF1020F00F087803588B6F80290043620
:1046B000A36C0F2129F0010B38469B44FFF77AFFCA
:1046C00083451AD825F001039B4409F0010905F040
:1046D0000105584545EA49052CBF00200120012D60
:1046E00014D02ED2B8F1000F0CBF002000F0010052
:1046F000002840F0BD800436CEE709F0010905F03E
:10470000010545EA49050020012DEAD1B8F1000F65
:1047100071D1A0B1736835689A1CA2D0029A013396
:10472000069200F09B80301DFFF722FEEA0F014643
:1047300006AB20460EF03CF8002840F0BF8008365B
:10474000AAE7022D8DD1336823F00045B8F1000FA0
:104750006AD150B3039A002A18BF002D25D1002D2D
:1047600000F09C8006F1040BC1460496CDF814803D
:10477000029ED84603E0AB45D94600F08E80404605
:104780000696FFF7F5FD0022014606AB20460EF027
:104790000FF809F1010B08F104080028EBD04D4592
:1047A000049EDDF8148079D03368002B54DB01358A
:1047B00006EB850670E7D6F80490083678E73846A9
:1047C00007A900F001FB00287FF44BAF019B0820F4
:1047D000002B3FF447AF0F213846FFF7EBFE0E21C9
:1047E00002463846FFF708FF38460F213B4AFFF7DD
:1047F00003FF072036E70D213846256AFFF7DAFE6A
:1048000085429CD1A36A9E4299D13046FFF7E2FCD3
:104810000F2102463846FFF7EFFE384600212246B8
:10482000FFF7EAFE07201DE70D213846D4F8209057
:10483000FFF7C0FE8145B7D1A36A9E42B4D10022E2
:10484000331DE2620422A562226363633368002B96
:104850002EDB01230193AAE70436A8E738460D2191
:10486000FFF7A8FE2062069B6362A6620620F9E6B7
:104870003046FFF7AFFC04360546A66320460DF030
:10488000EDFF00283FF4EDAE38460F212A46FFF732
:10489000B3FE0720E6E65546DBE6049E38460D21CA
:1048A000FFF788FE069B20626362A6620620D9E6B7
:1048B00005F10100A94606EB8000A7E703460D219C
:1048C00038460093FFF776FE009B2062022BCAD188
:1048D0002346069A43F82C2F6362C6E73D2401085D
:1048E0000223FFF797BE00BF0123FFF793BE00BF6F
:1048F0000023FFF78FBE00BFD36BF0B51364151D07
:1049000007460E460FCDADF5277D17AC0FC40FCD72
:104910000FC40FCD0FC495E80F0084E80F004FF0CF
:10492000FF33169326996846FFF7D2FC6A460C219E
:10493000B8B916A8FFF760FE314616A8B847694611
:1049400016AA70B90820049B9847092818BF0528A3
:104950000446E7D116A8FFF78FFC20460DF5277D0A
:10496000F0BD0924F6E700BF2DE9F0410446E8B0A8
:10497000042907D8DFE801F02C4644030A00032B82
:1049800000F0C380022068B0BDE8F081102A98BF13
:10499000002BF7D12368D90600F1DB8002A8019231
:1049A00000F088F9A06B019A0023012505FA03F1B4
:1049B00011421EBF50F8041B02AE46F8231001330B
:1049C000042BF3D1A06302A800F06AF90020DAE713
:1049D000002BD7D1A56B96B2012000FA03F131422A
:1049E0001EBF04EB830755F8041B79600133102BBD
:1049F000F3D112F4005008BFA563C4D00020C2E771
:104A00000120C0E703F0FB010129BBD1150C96B2D0
:104A10007219012B14BF202110219142B2D3B3F19E
:104A2000010CDCF1000757EB0C070F2D94BF0021A0
:104A300001213942A6D1B04621B9102A40F2AB80FB
:104A4000A2F11008B8F1000F18BF052B9AD10F2D55
:104A50000FD82268D0070CD522F00101052B216068
:104A6000204600F0AE8022F0030240F8482B00F010
:104A7000BFF8B8F1000F02D0236859077BD4002F8C
:104A800040F098800F2D6ED9B8F1000F40F08C8067
:104A9000A06B002E014610DD46AA4FEA460C02EB41
:104AA000C5060CF1FF3133469A1B0139125843F801
:104AB000042B4A1CF8D100EB8C01B8F1000F16D082
:104AC00068AB102D2CBF2E46102603EBC6064FEA0E
:104AD000480CA6F502760CF1FF33081F50F8042F9E
:104AE000013B46F8042B5A1CF8D101EB8C01002F36
:104AF00053D10F2DA1633AD9B8F1000F3FF47EAF27
:104B000006A800F081F800203DE7150C96B2731955
:104B1000102B3FF637AF2368180734D426A800F0CF
:104B20009DF8A06B26AA760002EBC5050346721E0F
:104B30004EB12B46591B013A095843F8041B511C2E
:104B4000F8D100EB860326A8A36300F065F80020E7
:104B500019E723F01003236004F50C70019200F0B4
:104B6000A9F8019A1AE746A800F04AF88CE746A887
:104B700000F042F8C0E7204623F0040340F8D03BA1
:104B800000F046F87BE723F00803236004F5D870B3
:104B900000F064F8C2E7884659E7043146A8A163EB
:104BA00000F022F80020EEE606A800F031F8C5F18A
:104BB00010066DE746A800F01BF8B8F1000FF6D11B
:104BC00066E741F0020140F8481B00F019F850E791
:104BD00000F1340191E838009C46A6464CF8045D8B
:104BE00090E8FF0FE54600BD90EC210B704700BF39
:104BF00080EC210B704700BF90EC200B704700BF8A
:104C000080EC200B704700BFD0EC200B704700BF3A
:104C1000C0EC200B704700BFF0EC0201F0EC021179
:104C2000F0EC0221F0EC0231F0EC0241F0EC025128
:104C3000F0EC0261F0EC0271F0EC0281F0EC029118
:104C4000F0EC02A1F0EC02B1F0EC02C1F0EC02D108
:104C5000F0EC02E1F0EC02F1704700BFE0EC020181
:104C6000E0EC0211E0EC0221E0EC0231E0EC024168
:104C7000E0EC0251E0EC0261E0EC0271E0EC028158
:104C8000E0EC0291E0EC02A1E0EC02B1E0EC02C148
:104C9000E0EC02D1E0EC02E1E0EC02F1704700BF91
:104CA000B0FC0181B0FC0191B0FC01A1B0FC01B1EC
:104CB000704700BFA0FC0181A0FC0191A0FC01A1F4
:104CC000A0FC01B1704700BFEC4600B52DE90050D3
:104CD0002DE9FF1F4FF000032DE90C0001A9FFF79C
:104CE000DDFBDDF840E012B0704700BFEC4600B5D8
:104CF0002DE900502DE9FF1F4FF000032DE90C00B6
:104D000001A9FFF707FCDDF840E012B0704700BFD3
:104D1000EC4600B52DE900502DE9FF1F4FF00003D0
:104D20002DE90C0001A9FFF717FCDDF840E012B0F7
:104D3000704700BFEC4600B52DE900502DE9FF1F7C
:104D40004FF000032DE90C0001ABFFF7D7FBDDF8B6
:104D500040E012B0704700BFEC4600B52DE90050AE
:104D60002DE9FF1F4FF000032DE90C0001AAFFF70A
:104D7000C3FDDDF840E012B0704700BF027A034681
:104D80001AB9427A42B9B0207047013A00681A72E3
:104D900002021A60000E70474168013A427251F8EF
:104DA000040B032259601A72F2E700BF00B585B008
:104DB000002103AB00930C220B46FFF7E3FB0398A3
:104DC00005B000BDFFF7F2BF2DE9F043064685B000
:104DD0000D464FF000082846FFF7D0FFB0280446E4
:104DE00000F0BE8020F07F02D1B201B300F0F002EB
:104DF000802A79D0902A3AD0A02A46D0B02A5AD018
:104E0000C02A00F0898000F0F803D02B0BD100F00D
:104E10000704621C3046012142F400220523FFF7FB
:104E2000A3FD0028D7D0092005B0BDE8F0834FEAE4
:104E3000800903AF04F040040B465FFA89F900973C
:104E400030460D22E4B2FFF79DFB09F10409039BF4
:104E50004CB94B4403930021009730460D220B467A
:104E6000FFF7B4FBB7E7C9EB03030393F3E700F0E5
:104E70000D030D2BD7D003AF002100F00F020B461E
:104E800000973046FFF77EFBE5E7C2434FF47F63B0
:104E900002F0070200F0080443FA02F2E4B21A40FA
:104EA0000CB142F48042002130460B46FFF75CFD16
:104EB0000028B8D18FE7B12876D0B22800F08780DB
:104EC000B32800F0B68000F0FC03B42B5ED000F0F5
:104ED000070201320121304642F400220B46FFF75F
:104EE00043FD00289FD176E72846FFF747FF2402BD
:104EF0000443B4F5004F96D0220500213046120C31
:104F00000B462401FFF730FD00288CD114F4004F2C
:104F100018BF4FF001085EE7C62800F09D80C72843
:104F200000F0A48000F0F803C02B00F0B280C82885
:104F300000F0BD80C9287FF476AF2846FFF71EFF3A
:104F400000F00F03013300F0F00243EA0232304672
:104F500001210523FFF708FD00287FF464AF3AE73D
:104F60000020B8F1000F7FF45FAF03AC41460E2282
:104F7000434600943046FFF705FB00943046414617
:104F80000F224346FFF722FB40464DE700F00302A5
:104F900001320221304642F480220B46FFF7E4FC46
:104FA00000287FF440AF16E72846FFF7E7FE0246E9
:104FB00000283FF438AF10F0F0017FF434AF3046F2
:104FC0000B46FFF7D1FC00287FF42DAF03E700214B
:104FD00003AF0D220B4600973046FFF7D3FA284661
:104FE000FFF7CCFE20F07F03022413F0FF0F0FD059
:104FF000039B00F07F0000FA04F01B18284603937F
:10500000FFF7BCFE20F07F03073413F0FF0FEFD152
:10501000039B009700F07F0003F5017300FA04F48E
:1050200000211C1930460D220B460394FFF7CEFADF
:10503000D1E62846FFF7A2FE00F00F03013300F08F
:10504000F002012143EA023230460B46FFF78CFCA6
:1050500000287FF4E8AEBEE62846FFF78FFE00F09A
:105060000F03013300F0F0020321EBE72846FFF7BE
:1050700085FE024600283FF4D6AE10F0F0037FF420
:10508000D2AE30460421FFF76FFC00287FF4CBAE90
:10509000A1E600F00F0201320321304642F4202243
:1050A0000B46FFF761FC00287FF4BDAE93E628466F
:1050B000FFF764FE00F0F00200F00F03103201333E
:1050C00043E700BF10B5C36C84B003225C688DF861
:1050D0000C20DA7924020833084601A901940293CE
:1050E0008DF80D20FFF770FE04B010BD08B5FFF776
:1050F00069FE806C08BD00BF08B5FFF763FEC36C96
:10510000DA7903EB8200083008BD00BF08B5FBF771
:105110003BF800BF08B5FBF737F800BF704700BF8A
:105120002DE9F00F002400291D46C0F20681002D54
:10513000C0F2FE8080460F4694461E46DBBB8A4284
:1051400048D9B2FA82F343B1C3F1200520FA05F53C
:1051500001FA03F19A4029439840150CB1FBF5F68A
:10516000030C1FFA82FC05FB16110CFB06F743EA41
:1051700001439F4208D9711E9B1880F028819F42ED
:1051800040F22581023E9B18DB1BB3FBF5F105FBCA
:10519000113380B20CFB01FC40EA0340844506D980
:1051A0004B1E821802D20239944500D8194641EAB2
:1051B0000641002503E08B4244D9002529460A46D2
:1051C0002B4614B1524263EB430310461946BDE827
:1051D000F00F704712B90123B3FBF2F2B2FA82F674
:1051E000002E40F0B080891A130C1FFA82FC0125B2
:1051F000B1FBF3F703FB17114FEA10490CFB07F85B
:1052000049EA0146B04506D9791EB61802D2B04522
:1052100000F2E7800F46C8EB0606B6FBF3F103FB8E
:10522000116380B20CFB01FC40EA03439C4506D9A4
:105230004E1E9B1802D202399C4500D8314641EAE5
:105240000741BCE7B3FA83F5002D00F0B980C5F142
:10525000200103FA05F622FA01F31E4327FA01F2B0
:105260004FEA164807FA05F720FA01F1B2FBF8F900
:105270000F433B0C1FFA86FA08FB19220AFB09FBB5
:1052800043EA024293450CFA05FC0BD9921909F145
:10529000FF3380F0A280934584BFA9F102099219DF
:1052A00040F29B80CBEB0202B2FBF8F108FB11222B
:1052B000BFB20AFB01FA47EA02439A4508D94A1EDF
:1052C0009B1980F086809A4540F2838002399B19B1
:1052D00041EA09410F0C1FFA8CF808FB07F68AB265
:1052E0004FEA1C4C08FB02F80CFB026202EB18426E
:1052F0000CFB07FC964288BF0CF5803CCAEB03030D
:105300000CEB124C634510D31FFA88F814BF00232E
:10531000012300FA05F508EB024295422CBF002557
:1053200003F00105002D3FF44AAF0139002546E79F
:10533000E443524263EB4303FCE6404261EB41012C
:105340004FF0FF34F3E6B240C6F1200921FA09F725
:10535000130C20FA09F901FA06F1B7FBF3F849EA50
:1053600001091FFA82FC03FB18774FEA19410CFB75
:1053700008F541EA0747B040BD4209D9BF1808F116
:10538000FF312CD2BD4284BFA8F10208BF1826D934
:105390007F1BB7FBF3F503FB15711FFA89F90CFBB3
:1053A00005F649EA01418E4206D96F1E891812D2CC
:1053B0008E4210D9023D8918891B45EA084517E736
:1053C0000121BB4228BF82427FF6F9AEF5E60E46C8
:1053D000DAE611467CE73D46EEE7994662E7884605
:1053E000D6E7023FB61816E72DE9F0071446054642
:1053F0000E46DBBB8A4246D9B2FA82F343B1C3F10F
:10540000200220FA02F201FA03F69C4016439D4066
:10541000230CB6FBF3F1280CA7B203FB116607FBC4
:1054200001F240EA0646B24208D9481E361980F019
:105430000E81B24240F20B8102393619B61AB6FB20
:10544000F3F203FB1263ADB207FB02F745EA034335
:105450009F4207D9501E1B1980F0F780023A9F42E5
:1054600040F2F38042EA0140002146E08B4242D8FC
:10547000B3FA83F4002C43D18B4228BF82423AD83E
:105480002146012039E012B90123B3FBF2F4B4FA4A
:1054900084F2002A40F09B800A1B230CA7B2012152
:1054A000B2FBF3F603FB16224FEA154C07FB06F09E
:1054B0004CEA0242904207D9121906F1FF3C02D28F
:1054C000904200F2DB806646121AB2FBF3F003FB57
:1054D0001023ADB207FB00F745EA03439F4207D90B
:1054E000421E1B1980F0B58002389F4240F2B18005
:1054F00040EA064001E000210846BDE8F007704799
:10550000C4F1200C22FA0CF503FA04F32B4321FA20
:105510000CF61F0C01FA04F120FA0CFCB6FBF7F8AC
:105520004CEA01010D0C1FFA83F907FB186609FB11
:1055300008FA45EA0646B24502FA04F205D9F61819
:1055400008F1FF35C0F08E80A846CAEB0606B6FB10
:10555000F7FC07FB1C6689B209FB0CF941EA06451A
:10556000A94504D9ED180CF1FF3174D38C464CEAEF
:10557000084C97B24FEA1C46120C07FB06F11FFAC3
:105580008CF307FB03F702FB031303EB174302FB48
:1055900006F2994288BF02F58032C9EB050502EB9D
:1055A000134295420FD3BFB200FA04F114BF002298
:1055B000012207EB034399422CBF002102F00101B5
:1055C0006046002999D00CF1FF30002195E7944006
:1055D000C2F1200521FA05F6230C01FA02F120FAA6
:1055E00005F9B6FBF3FC49EA0109A7B203FB1C6607
:1055F0004FEA194107FB0CF841EA0646B04500FAAC
:1056000002F509D936190CF1FF3233D2B04584BF07
:10561000ACF1020C36192DD9C8EB0606B6FBF3F037
:1056200003FB10621FFA89F907FB00F149EA024205
:10563000914206D9461E12191ED291421CD9023837
:105640001219521A40EA0C412AE702460AE70146BB
:10565000F4E610464CE7A94584BFACF1020CED1806
:1056600085D883E7B24584BFA8F10208F6183FF653
:105670006CAF69E79446CFE73046E2E7023E121985
:1056800022E700BF08B500F0A7FB032000F0AAFB4B
:1056900040F21070C1F2000000F020FA002008BDB6
:1056A00070B54FF44065C4F2020544F240244FF453
:1056B0000056C0F20F042E832046FCF7D5F8204692
:1056C0006E83BDE87040FCF7CFB800BF00B5074857
:1056D00083B0322100F0DEF9002101A8044A0B4614
:1056E00000F040FFFFF7DCFFFCE700BF10070010F1
:1056F000855600084FF48053C4F2020308220120AB
:105700005A83FCF7B1B800BF4FF48053C4F20203D0
:10571000082201201A83FCF7A7B800BF70B54FF428
:105720006054C4F202040025636C43F48053636444
:10573000236BC4F2020543F01103236306460521DF
:105740001022284604F02CFE05210A46284604F0C3
:1057500051FE28460621102204F022FE284606218A
:10576000052204F047FE28460721102204F018FE07
:1057700028460721052204F03DFE4FF48050082200
:105780000321C4F2020004F00BFE3046FFF7BCFF19
:10579000626A42F4805262624FF44053626AC4F219
:1057A0000103002262621A6842F038021A601A6825
:1057B00022F001021A601A6822F002021A601A68C6
:1057C00022F400621A601A6822F080021A601A68D5
:1057D00042F400721A601A6842F480721A605A68C1
:1057E00022F010025A601A6842F004021A601A6825
:1057F00042F040021A6070BDF8B54FF440540546BF
:105800000F461646C4F20104A3681906FCD42846C4
:10581000FFF770FF4FF44050C4F2010084684FF46A
:105820004053A207C4F20103F8D5DF601A4691681D
:105830004FF44053C807C4F20103F8D5DA681A469A
:1058400091684FF440538907C4F20103F8D5DE6034
:1058500019468A684FF44053D007C4F20103F8D5C3
:10586000DA689A681206FCD42846BDE8F840FFF7CB
:105870004BBF00BF4FF4405238B5C4F2010204469A
:105880000D4693681906FCD42046FFF733FF4FF40A
:10589000405045F08005C4F2010082684FF4405347
:1058A0009207C4F20103F8D5DD6019468A684FF407
:1058B0004053D007C4F20103F8D5DA6819468A6864
:1058C0004FF440539207C4F20103F8D50022DA6086
:1058D00019468A684FF44053D507C4F20103F8D53E
:1058E000DD68EDB29A681006FCD42046FFF70CFF85
:1058F000284638BD10B540F21474C1F200042046A9
:10590000FFF70CFF204620213122FFF775FF2046CC
:105910002321C822FFF770FF204659218022FFF77C
:105920006BFF20465A218022FFF766FF201DBDE84D
:10593000104000F063B800BF38B540F21474C1F2F3
:105940000004201D00F08CF828212046FFF792FF6C
:10595000292105462046FFF78DFF45EA002000B2C9
:10596000FEF756F904A3D3E90023FEF7E1FAFEF7A8
:10597000C7FB00B238BD00BFFCA9F1D24D62304078
:10598000EFF309810C480068A0E8F24F5FEACE62AD
:1059900001D480EC108ABFF35F8F00F00FF8064847
:1059A0000068B0E8F24F5FEACE6201D490EC108A52
:1059B00081F30988704700004807001038B50E4C85
:1059C0004FF47053C4F20103206801225A6178B188
:1059D00000F062FA206800F053FA054600F04AFA37
:1059E00000F04EFA2BB200B2984202DB0023236093
:1059F00038BD00F0EDFFF9E71C07001010B54FF4BB
:105A00006054C4F202040021236B4FF4805043F031
:105A100010030A462363C4F2020004F0C1FC616C67
:105A20004FF46052C4F2010241F480414FF47053CC
:105A30006164C4F20103042191601A6842F001021A
:105A40001A6099684FF46142CEF2000241F0010100
:105A5000996040231360F02382F8063310BD00BF25
:105A600010B572B600F006FA094C206040B100F0A3
:105A700009FA62B600F070F972B62368002BF6D10D
:105A800062B610BD62B60CF08DFE72B6FAE700BFCA
:105A90001C07001038B54FF44064C4F202040D46F0
:105AA00008220C21204604F07BFC20460D21082210
:105AB00004F076FC20460E21082204F071FC2046FA
:105AC0000F21082204F06CFC40F22070C1F20000AB
:105AD0002946BDE83840FFF70DBF00BF70B54FF451
